:100000000C9434000C9451000C9451000C94510049
:100010000C9451000C9451000C9451000C9451001C
:100020000C9451000C9451000C9451000C946506F2
:100030000C9451000C9451000C9451000C945100FC
:100040000C9451000C9451000C9451000C945100EC
:100050000C9451000C9451000C9451000C945100DC
:100060000C9451000C94510011241FBECFEFD8E026
:10007000DEBFCDBF11E0A0E0B1E0E0E4FDE002C0F2
:1000800005900D92A23CB107D9F722E0A2ECB1E0B5
:1000900001C01D92AB33B207E1F70E9429060C9410
:1000A0009E060C9400001F93CF93DF93D82F192F37
:1000B000C62F0E948C062A9A85B115B886E00E9448
:1000C00092062A9A85B115B882E00E949206812F85
:1000D0000E9492068D2F0E9492068C2F0E949206FB
:1000E0002A9A81EE94E00197F1F700C00000DF91B9
:1000F000CF911F910895CF93DF93C82FD92F0E94DE
:100100008C062A9A85B115B883E00E9492068D2F3D
:100110000E9492068C2F0E9492060E9497062A9AAD
:10012000DF91CF910895982F92959F70990F292F65
:10013000220F220F920F8F70890F0895CF93DF93B4
:10014000EC010E94E60080ED0E94F80080E00E9431
:10015000F8000E94EF000E94E60081ED0E94F80086
:1001600081E090E00E9403010E949300888381E077
:1001700090E00E9403010E949300898381E090E057
:100180000E9403010E9493008A8381E090E00E9414
:1001900003010E9493008C8381E090E00E940301A0
:1001A0000E9493008B8381E090E00E9403010E94F3
:1001B00093008D8380E090E00E9403010E949300F1
:1001C0008E830E94EF00DF91CF91089584EA80939F
:1001D000BC00ECEBF0E080818823ECF7089584E923
:1001E0008093BC00ECEBF0E0808184FDFDCF0895AE
:1001F0008093BB0084E88093BC00ECEBF0E080814E
:100200008823ECF708950024969587950794969592
:1002100087950794982F802D84688093BC00ECEB21
:10022000F0E080818823ECF78091BB00089584B1D1
:10023000836084B985B18C7F85B987B18F6087B9B8
:1002400088B1807F88B9089598B1907F282F229532
:100250002F70922B98B92998289A0000289892E438
:100260009A95F1F700C098B1907F8F70892B88B96B
:10027000289A0000289883EF91E00197F1F700C0D9
:10028000000008950E94170187E893E10197F1F7B4
:1002900000C0000082E00E94240188E20E94240144
:1002A0008FE00E94240186E00E94240181E00E94E8
:1002B000240180E80E942401089598B1907F282F9E
:1002C00022952F70922B98B9299A289A0000289885
:1002D00092E49A95F1F700C098B1907F8F70892BC6
:1002E00088B9289A0000289883EF91E00197F1F7E8
:1002F00000C000000895811106C0862F8F718058BC
:100300000E9424010895813031F4862F8F7180542A
:100310000E9424010895823031F4862F8F718C560B
:100320000E9424010895833029F4862F8F718C5206
:100330000E9424010895CF93DF93EC0188818823E4
:1003400031F021960E945D0189918111FBCFDF91EF
:10035000CF910895CF93DF93EA010E947B01CE01F4
:100360000E949B01DF91CF9108959093C5008093E7
:10037000C40088E18093C10086E08093C200E0EC75
:10038000F0E08081826080830895E0ECF0E090816D
:1003900095FFFDCF8093C60008950F931F93CF93D1
:1003A000DF93FC01808181110AC011C089918823EB
:1003B00071F00E94C5010C171D07C1F708C08F011D
:1003C0000E94C501E801219601501F4FEFCFDF9138
:1003D000CF911F910F910895EF92FF920F931F936A
:1003E000CF93DF9300D000D01F92CDB7DEB77C0152
:1003F000FE01319685E0DF011D928A95E9F7569A54
:100400005E98E7E8F3E13197F1F700C000005E9AEB
:10041000FAE0FA95F1F7569856984E99FECF4E9B12
:10042000FECF99B1892F807496FDFBCFFE013196E6
:100430008E010A5F1F4FA1E0B0E01BC04E9BFECFB4
:100440009DE09A95F1F700004E9B0CC09081AD01A4
:10045000022E02C0440F551F0A94E2F7492B408335
:100460004E99FECF2150310948F731960E171F07DC
:1004700019F027E030E0E2CF49813B819A81940F67
:10048000930F2C81920F2D81921305C0DB014C93A9
:10049000F701308381E00F900F900F900F900F9035
:1004A000DF91CF911F910F91FF90EF9008950F93DF
:1004B0001F93CF9342E051E060E080E00E94AA01E8
:1004C0004FE051E060E081E00E94AA0149E151E083
:1004D00060E082E00E94AA014FE151E060E083E029
:1004E0000E94AA0166E082E00E947B010FEC11E00D
:1004F000F8018281CDEC8C9F812D11248695869503
:100500008695805D0E945D01F80182818C9F912D0E
:100510001124969596959695990F292F220F220FC3
:10052000920F891B805D0E945D018AE30E945D013C
:10053000F80181818C9F812D112486958695869561
:10054000805D0E945D01F80181818C9F912D1124B5
:10055000969596959695990F292F220F220F920F17
:10056000891B805D0E945D018AE30E945D01F801A4
:1005700080818C9F812D1124869586958695805D3E
:100580000E945D01F80180818C9F912D1124969528
:1005900096959695990F292F220F220F920F891B5E
:1005A000805D0E945D0166E083E00E947B01F801AE
:1005B00083818C9F812D1124869586958695805DFB
:1005C0000E945D01F80183818C9F912D11249695E5
:1005D00096959695990F292F220F220F920F891B1E
:1005E000805D0E945D018FE20E945D01F8018581BE
:1005F0008C9F812D1124869586958695805D0E941D
:100600005D01F80185818C9F912D11249695969519
:100610009695990F292F220F220F920F891B805D2B
:100620000E945D018FE20E945D01F80186818C9F2E
:10063000812D1124869586958695805D0E945D01A9
:10064000F80186818C9FC12D1124C695C695C6954B
:10065000CC0F9C2F990F990FC90F8C1B805D0E94A6
:100660005D018091CC019091CD01892B09F441C0AD
:100670006DE080E00E947B018091CB01CDEC8C9FEE
:10068000812D1124869586958695805D0E945D0159
:100690008091CB018C9F912D1124969596959695DE
:1006A000990F292F220F220F920F891B805D0E9424
:1006B0005D016AE081E00E947B0180913A028C9F9B
:1006C000812D1124869586958695805D0E945D0119
:1006D00080913A028C9FC12D1124C695C695C6956E
:1006E000CC0F9C2F990F990FC90F8C1B805D0E9416
:1006F0005D01CF911F910F9108954B9917C087E825
:1007000093E10197F1F700C000004B990DC0809173
:10071000C4019091C501809590959093C5018093F7
:10072000C40181E00E9424014B9BFECF08954C99A7
:1007300014C087E893E10197F1F700C000004C99DD
:100740000AC08091C2019091C301809590959093C9
:10075000C3018093C2014C9BFECF1E991BC087E84A
:1007600093E10197F1F700C000001E9911C080913C
:10077000C2019091C301892B31F4809101018F5FF7
:100780008093010105C0809100018F5F809300017B
:100790001E9BFECF1F991BC087E893E10197F1F7DD
:1007A00000C000001F9911C08091C2019091C30147
:1007B000892B31F48091010181508093010105C0A2
:1007C000809100018150809300011F9BFECF08950E
:1007D0009091CB0180910101981730F490913A02E9
:1007E00080910001981760F09BB184E089278BB954
:1007F00083ED90E30197F1F700C000005D98089544
:100800005A985D9A089584B18F7384B98AB18462CD
:100810008AB95D9A8AB1877E8AB90895CF9345E2F5
:1008200051E060E080E00E94AA0147E351E060E00F
:1008300082E00E94AA0148E451E060E083E00E9467
:10084000AA0146E551E060E081E00E94AA0169E06A
:1008500081E00E947B018091C2019091C301892BAC
:1008600029F48FE591E00E949B0104C08BE691E0A2
:100870000E949B0161E182E00E947B018091010165
:10088000CDEC8C9F812D1124869586958695805D73
:100890000E945D01809101018C9F912D11249695FC
:1008A00096959695990F292F220F220F920F891B4B
:1008B000805D0E945D0161E183E00E947B01809187
:1008C00000018C9F812D1124869586958695805DEB
:1008D0000E945D01809100018C9FC12D1124C6955D
:1008E000C695C695CC0F9C2F990F990FC90F8C1BDD
:1008F000805D0E945D01CF910895E1E8F0E0808184
:100900008B608083109285001092840089E09DE3C3
:100910009093890080938800EFE6F0E08081826008
:10092000808378940895CF93DF9380E090E00E94D5
:100930007B008093CE0181E090E00E947B00809359
:10094000CA01609101018091CE01861721F080E0FB
:1009500090E00E945300609100018091CA018617C7
:1009600021F081E090E00E94530090913A02809142
:10097000CA01981730F49091CB018091CE0198175D
:1009800060F1CFECD1E06B8183E090E00E945300F6
:100990006D8184E090E00E9453006E8185E090E0DC
:1009A0000E9453006A8186E090E00E9453006981B2
:1009B00087E090E00E945300688188E090E00E9408
:1009C00053006091CB0189E090E00E945300609158
:1009D0003A028AE090E00E945300DF91CF9108959F
:1009E0000F931F93CF939091CB01809101019817A2
:1009F00008F424C190913A0280910001981708F000
:100A000056C087E1E8E9F1E0A6EDB1E001900D9272
:100A10008A95E1F786ED91E00E94CD018091CB01AE
:100A2000CDEC8C9F812D1124869586958695805DD1
:100A30000E94C5018091CB018C9FC12D1124C695C8
:100A4000C695C695CC0F9C2F990F990FC90F8C1B7B
:100A5000805D0E94C50174C084E1E7E7F1E0A6ED86
:100A6000B1E001900D928A95E1F786ED91E00E9448
:100A7000CD0180913A02CDEC8C9F812D1124869579
:100A800086958695805D0E94C50180913A028C9F73
:100A9000C12D1124C695C695C695CC0F9C2F990FD4
:100AA000990FC90F8C1B805D0E94C50149C084E26B
:100AB000EBE8F1E0A6EDB1E001900D928A95E1F747
:100AC00086ED91E00E94CD0180913A02CDEC8C9FA1
:100AD000812D1124869586958695805D0E94C5019D
:100AE00080913A028C9F912D11249695969596951A
:100AF000990F292F220F220F920F891B805D0E94D0
:100B0000C50180E20E94C5018091CB018C9F812D9F
:100B10001124869586958695805D0E94C5018091F9
:100B2000CB018C9FC12D1124C695C695C695CC0FBF
:100B30009C2F990F990FC90F8C1B805D0E94C501D6
:100B40009091CB0180910101981738F490913A026D
:100B500080910001981708F478C08DE00E94C501CB
:100B60000FEC11E0F8018281CDEC8C9F812D1124D6
:100B7000869586958695805D0E94C501F8018281E3
:100B80008C9F912D1124969596959695990F292FC6
:100B9000220F220F920F891B805D0E94C5018AE3FC
:100BA0000E94C501F80181818C9F812D11248695B9
:100BB00086958695805D0E94C501F80181818C9F94
:100BC000912D1124969596959695990F292F220F80
:100BD000220F920F891B805D0E94C5018AE30E944B
:100BE000C501F80180818C9F812D11248695869501
:100BF0008695805D0E94C501F80180818C9FC12D82
:100C00001124C695C695C695CC0F9C2F990F990FA8
:100C1000C90F8C1B805D0E94C5018DE00E94C5013B
:100C200082E1EFEAF1E0A6EDB1E001900D928A9544
:100C3000E1F786ED91E00E94CD0107C090913A0264
:100C400080910001981708F007CFCF911F910F9165
:100C500008950E9403040E9442018CE00E94240136
:100C60008CE090E00E94B5010E947D048FEC91E041
:100C70000E949E006AE372E08BEC91E00E94EC011E
:100C800090E09093CD018093CC018091C40190912C
:100C9000C501892B19F40E94570202C00E940E045C
:100CA0008091C6019091C701892B31F00E94F00418
:100CB0001092C7011092C6010E94E8030E947D03B2
:100CC0000E9497030E949304D1CF1F920F920FB6F8
:100CD0000F9211248F939F938091C8019091C90125
:100CE00001969093C9018093C8018091C8019091A9
:100CF000C901059751F481E090E09093C70180937A
:100D0000C6011092C9011092C8019F918F910F9056
:100D10000FBE0F901F90189584B18C6284B981E545
:100D20008CBD08958EBD0DB407FEFDCF08958FEFE5
:100D30008EBD0DB407FEFDCF8EB50895F894FFCF9C
:100D40004B3054656D70657261747572653A004818
:100D5000756D69646974793A0054696D653A004447
:100D60006174653A002020205448524553484F4C46
:100D700044204D4F44450054656D70657261747533
:100D80007265204D41583A0048756D6964697479FF
:100D9000204D41583A0053657474696E673A0054A7
:100DA000454D50455241545552450048554D4944D2
:100DB0004954592020200048756D69646974792070
:100DC00065786365656465643A200048756D69649B
:100DD00069747920616E642054656D706572617408
:100DE0007572652065786365656465643A20002DD9
:100DF0002D2D2D2D2D2D2D2D2D2D2D2D2D2D2D0D43
:020E00000000F0
:00000001FF
